:100000000C94D6000C94FE000C94FE000C94FE00A0
:100010000C94FE000C94FE000C94FE000C94FE0068
:100020000C94FE000C94B9100C945F0D0C94CE0D42
:100030000C94A2100C94FE000C94FE000C94FE0094
:100040000C94FE000C94FE000C94FE000C94FE0038
:100050000C94FE000C94FE000C94FE000C945810BE
:100060000C94FE000C9426100C9400100C94FE00CE
:100070000C94FE000C94FE000C94FE000C94FE0008
:100080000C94FE000C94FE000C94FE000C94FE00F8
:100090000C9420110C94FE000C94FE000C94FE00B5
:1000A0000C94FE000C94FE000C94FE000000000274
:1000B00000090F0000030401000C00000000000014
:1000C0000000000000000000000000080B00020219
:1000D00002000009040000010202000005240010D3
:1000E000010524010101042402060524060001077C
:1000F00005810310004009040100020A0000000706
:1001000005020240000007058302400000040309C5
:100110000412010002EF0201404123368000010178
:1001200002030141726475696E6F204C4C430041BB
:10013000726475696E6F204C656F6E6172646F00DA
:10014000000000002300260029002C002F000000E2
:100150000000240027002A002D00300000000000CD
:10016000250028002B002E00310004080201104059
:100170008040102040804080080204018040201010
:1001800002011080102040402004040404040304F1
:100190000502020202040302020202060606060625
:1001A00006040402020204043B12891611241FBE35
:1001B000CFEFDAE0DEBFCDBF23E0AAE7B1E001C0B8
:1001C0001D92A338B207E1F711E0A0E0B1E0E6E943
:1001D000F6E302C005900D92AA37B107D9F710E0F7
:1001E000C5EDD0E004C02197FE010E942C19C43D4A
:1001F000D107C9F70E940F130C943E1B0C9400000A
:10020000FC0180911102882311F13FB7F89482E03C
:100210008093E9002091F200822F90E018161906D1
:1002200014F481E090E0882339F0289844E6409364
:1002300010024091F1004083222339F02091F20016
:10024000211103C02BE62093E8003FBF08958FEFF4
:100250009FEF08952FB7F89483E08093E900909181
:10026000E800892F807295FF04C09091F20080E42D
:10027000891B2FBF08958091080281110DC082E073
:100280008093040284E0809305021092070210928A
:10029000060281E08093080284E092E008950895C8
:1002A0004091F7015091F8012091F5013091F6014C
:1002B00042175307B4F49091E8009570E1F39091E0
:1002C000E80092FD19C08093F1008091F7019091B0
:1002D000F80101968F739927892B19F48EEF80937B
:1002E000E8008091F7019091F80101969093F80150
:1002F0008093F70181E0089580E00895EF92FF92E6
:100300000F931F93CF93DF93F82E192FE62E042F10
:1003100081E0860F880F0E94500183E00E94500107
:10032000CF2DD12FEC0EFD2EF11CCE15DF05B9F02F
:1003300007FF13C0FE0184910E945001182F80E036
:100340000E945001812321968111EFCFDF91CF913F
:100350001F910F91FF90EF9008958881EDCF81E07C
:10036000F5CFDF92EF92FF920F931F93CF93DF931E
:10037000D82E8A01EB017B01E40EF51ECE15DF05B8
:1003800059F0D7FE12C0FE0184910E9450012196BF
:100390008111F4CF0FEF1FEFC801DF91CF911F91B3
:1003A0000F91FF90EF90DF9008958881EECF0F932B
:1003B0001F93CF93DF931F92CDB7DEB782E089837F
:1003C00042E450E06BEC70E080E80E94B1010E94D2
:1003D0003B01DC0112960D911C910115110589F06C
:1003E000D801ED91FC910280F381E02DBE016F5F99
:1003F0007F4FC801099597FD04C0F801008511855C
:10040000ECCF89810F90DF91CF911F910F910895CB
:10041000615030F02091F100FC0120830196F8CF6B
:10042000289884E6809310020895AF92BF92CF92ED
:10043000DF92EF92FF920F931F93CF93DF936C01A4
:100440007B018B01040F151FEB015E01AE18BF0885
:10045000C017D10759F06991D601ED91FC91019037
:10046000F081E02DC6010995892B79F7C501DF914F
:10047000CF911F910F91FF90EF90DF90CF90BF90A1
:10048000AF900895FC01538D448D252F30E0842FCB
:1004900090E0821B930B541710F0CF9608950197AC
:1004A0000895FC01918D828D981761F0A28DAE0F99
:1004B000BF2FB11D5D968C91928D9F5F9F73928F20
:1004C00090E008958FEF9FEF0895FC01918D828D4C
:1004D000981731F0828DE80FF11D858D90E0089519
:1004E0008FEF9FEF0895FC01918D228D892F90E071
:1004F000805C9F4F821B91098F739927089582E634
:1005000092E00E94730221E0892B09F420E0822FFF
:10051000089580E090E0892B29F00E947F028111EC
:100520000C9400000895FC01A48DA80FB92FB11DF3
:10053000A35ABF4F2C91848D90E001968F73992719
:10054000848FA689B7892C93A089B1898C918274F4
:100550008C93938D848D981306C00288F389E02DC7
:1005600080818F7D80830895EF92FF920F931F9378
:10057000CF93DF93EC0181E0888F9B8D8C8D981356
:1005800019C0E889F989808185FF14C09FB7F89464
:10059000EE89FF896083E889F9898081827480838C
:1005A0009FBF81E090E0DF91CF911F910F91FF906D
:1005B000EF900895F62E0B8D10E00F5F1F4F0F7315
:1005C0001127E02E8C8D8E110CC00FB607FCFACFD0
:1005D000E889F989808185FFF5CFCE010E949302D9
:1005E000F1CFEB8DEC0FFD2FF11DE35AFF4FF082A1
:1005F0009FB7F8940B8FEA89FB8980818062CFCF07
:10060000CF93DF93EC01888D8823B9F0AA89BB8949
:10061000E889F9898C9185FD03C0808186FD0DC034
:100620000FB607FCF7CF8C9185FFF2CF808185FF55
:10063000EDCFCE010E949302E9CFDF91CF910895D3
:10064000CF93DF931F92CDB7DEB76983DC01ED91C5
:10065000FC910280F381E02D41E050E0BE016F5F2C
:100660007F4F09950F90DF91CF91089583E080939C
:10067000E9008091F200882319F08AE38093E80072
:1006800008950E942A0190E00895CF93DF931F926E
:10069000CDB7DEB7FC018485958597FD08C02FEFA7
:1006A0003FEF358724870F90DF91CF910895CE01DA
:1006B00001960E940001019719F4898190E0F3CF1F
:1006C0008FEF9FEFF0CF0F931F93CF93DF931F9286
:1006D000CDB7DEB78C01FC018485958597FF0BC0F3
:1006E000CE0101960E940001019771F4898190E08A
:1006F000F80195878487F801848595850F90DF91AF
:10070000CF911F910F9108958FEF9FEFF1CFFC01D3
:100710008485958597FD0BC09FB7F89482E0809300
:10072000E9008091F2009FBF90E0019608959FB785
:10073000F89482E08093E9008091F2009FBF90E0FE
:10074000089581508F3008F047C0E82FF0E0E5555C
:10075000FC4F0C942C19C803CC03BA03C003C40388
:10076000EC03EC03EC03CF03D503D903DD03E30370
:10077000EC03E703809180008F77809380000895D9
:10078000809180008F7DF9CF80918000877FF5CFA9
:1007900084B58F7784BD089584B58F7DFBCF80911C
:1007A00090008F77809390000895809190008F7DC6
:1007B000F9CF80919000877FF5CF8091C0008F772F
:1007C0008093C00008958091C0008F7DF9CF809103
:1007D000C200877F8093C20008951F93CF93DF9359
:1007E000282F30E0F901E455FF4F8491F901E659D3
:1007F000FE4FD491F901E757FE4FC491CC23A9F0E5
:10080000162F81110E94A103EC2FF0E0EE0FFF1FC5
:10081000E45AFE4FA591B4918FB7F894EC91111161
:1008200008C0D095DE23DC938FBFDF91CF911F915D
:100830000895DE2BF8CFCF93DF9390E0FC01E659CB
:10084000FE4F249187579E4FFC0184918823C9F065
:1008500090E0880F991FFC01E25BFE4FA591B491D7
:10086000FC01E45AFE4FC591D49161110DC09FB7B0
:10087000F8948C91209582238C9388812823288357
:100880009FBFDF91CF910895623051F49FB7F894E4
:100890003C91822F809583238C93E8812E2BEFCF80
:1008A0008FB7F894EC912E2B2C938FBFEACF823028
:1008B000910538F0880F991F880F991F05970197A8
:1008C000F1F708953FB7F8948091F1019091F2010A
:1008D000A091F301B091F40126B5A89B05C02F3F6C
:1008E00019F00196A11DB11D3FBFBA2FA92F982F56
:1008F0008827BC01CD01620F711D811D911D42E051
:10090000660F771F881F991F4A95D1F708958F9218
:100910009F92AF92BF92CF92DF92EF92FF926B01C4
:100920007C010E9462044B015C01C114D104E1040A
:10093000F104B9F00E946204681979098A099B09D7
:10094000683E73408105910580F321E0C21AD10809
:10095000E108F10888EE880E83E0981EA11CB11C06
:10096000E4CFFF90EF90DF90CF90BF90AF909F903B
:100970008F900895CF93DF93CFEFD2E060E08AA508
:100980000E94ED036AEF70E080E090E00E9487042F
:1009900061E08AA50E94ED036AEF70E080E090E0DC
:1009A000DF91CF910C948704CF93DF93CFEFD2E008
:1009B00060E08BA50E94ED036AEF70E080E090E0BC
:1009C0000E94870461E08BA50E94ED036AEF70E04E
:1009D00080E090E0DF91CF910C9487048F929F92FA
:1009E000AF92BF92CF92DF92EF92FF920F931F933D
:1009F000CF93DF936C017B018A0180910B018823E7
:100A000009F45CC080911102882309F457C08091D9
:100A1000FB0180FF05C08091E00082608093E000D0
:100A2000E801B12C8AEFA82E93E0892E2AE3922EBA
:100A3000209711F4BB20D9F10E942A0181110AC02C
:100A4000AA94AA20D9F161E070E080E090E00E94D1
:100A50008704EECF8C171D0611F00CF08C2F9FB77A
:100A6000F8948092E9002091E80025FD02C09FBF24
:100A7000DFCF282F30E0C21BD30BF701815020F0CD
:100A800041914093F100FACFE20EF31EBB2021F01A
:100A90009092E800B12CEBCF8091E80085FDE7CF84
:100AA0009092E800BB24B394209709F3F3CF5D98AC
:100AB00084E68093FA01101611063CF081E090E084
:100AC000F6019383828310E000E0C801DF91CF91AB
:100AD0001F910F91FF90EF90DF90CF90BF90AF905C
:100AE0009F908F9008952FB7F8946091ED017091C9
:100AF000EE018091EF019091F0012FBF0895411513
:100B0000510529F4EAE7F0E080818F7780836A302D
:100B10007105B9F0CB01880F991F880F991F80725A
:100B200067706860682B88E10FB6F894A895809389
:100B300060000FBE60936000E0E6F0E080818064BA
:100B40008083232BB1F483B7817F846083BFF894C3
:100B500083B7816083BF7894889583B78E7F83BF86
:100B60007894452B29F4EAE7F0E08081806880835F
:100B7000089583B7817F846083BFF89483B78160D1
:100B800083BF7894889583B78E7F83BF7894E9CFAD
:100B90002091A101260F3327331F21323105ECF4B8
:100BA0002091C501FC0190E080E0243069F082E0F2
:100BB0000895A091A1012191AC014F575E4FA40F60
:100BC000B52FB11D2C930196861798F38091A10142
:100BD000680F6093A10180E0089581E00895089571
:100BE0008FEF9FEF08958FEF9FEF089580917A0127
:100BF00090E09195819591090895CF93DF93CB0172
:100C0000EA01642F0E94C805CE01DF91CF910895BB
:100C1000CF93DF931F92CDB7DEB7698361E0CE013A
:100C200001960E94C80581E090E00F90DF91CF917E
:100C30000895CF92DF92EF92FF920F931F93CF937D
:100C4000DF93EC01EA89FB8990818F858095892368
:100C50008083EE89FF8980819F85892B8083E88945
:100C6000F98990818E85809589238083EC89FD891F
:100C700080819E85892B80838D8D9E8D009711F0BC
:100C80000E945704EE89FF8990818F858095892382
:100C900080838F8D882331F0EA89FB8980819F854D
:100CA000892B808388A18823C9F00E9473056B017A
:100CB0007C01EA8DFB8D80819F85892379F40E94D8
:100CC00073056C197D098E099F0909A11AA12BA131
:100CD0003CA1601771078207930758F38D8D9E8D95
:100CE000009711F00E945704EC89FD8990818E8550
:100CF0008095892380838F8D882331F0E889F98955
:100D000080819E85892B80838D8D9E8D009751F0EB
:100D1000DF91CF911F910F91FF90EF90DF90CF90D7
:100D20000C945704DF91CF911F910F91FF90EF909A
:100D3000DF90CF900895CF93DF93EC01EC89FD898C
:100D400090818E858095892380838F8D882331F0D3
:100D5000E889F98980819E85892B8083EE89FF89C6
:100D600090818F858095892380838F8D882331F0B2
:100D7000EA89FB8980819F85892B80838D8D9E8D5B
:100D8000009711F00E945704E88DF98D90818E85AF
:100D90009823EA8DFB8D20813F85232311F480E089
:100DA00028C09923E1F3E889F98990818095892306
:100DB0008083EC89FD8980819E85892B80838D8D40
:100DC0009E8D009711F00E945704EA89FB8990815B
:100DD0008F85809589238083EE89FF8980819F8517
:100DE000892B80838D8D9E8D009711F00E94570472
:100DF00081E0DF91CF910895CF92DF92EF92FF9241
:100E00000F931F93CF93DF93EC01EC89FD899081C1
:100E10008E858095892380838F8D882331F0E889A2
:100E2000F98980819E85892B8083EE89FF89908155
:100E30008F858095892380838F8D882331F0EA897F
:100E4000FB8980819F85892B808388A18823C9F0B5
:100E50000E9473056B017C01EA8DFB8D80819F856B
:100E6000892379F40E9473056C197D098E099F0905
:100E700009A11AA12BA13CA1601771078207930752
:100E800058F38D8D9E8D009711F00E945704E88DC8
:100E9000F98D80819E85892311E009F410E0EA89AB
:100EA000FB8990818F85809589238083EE89FF89D6
:100EB00080819F85892B80838D8D9E8D009711F079
:100EC0000E945704812FDF91CF911F910F91FF90C6
:100ED000EF90DF90CF900895CF92DF92EF92FF9244
:100EE0000F931F93CF93DF93EC018E858095611153
:100EF0005EC0E889F989908189238083EC89FD8926
:100F000080819E85892B80838D8D9E8D009711F029
:100F10000E945704EE89FF8990818F8580958923EF
:100F200080838F8D882331F0EA89FB8980819F85BA
:100F3000892B808388A18823C9F00E9473056B01E7
:100F40007C01EA8DFB8D80819F85892379F40E9445
:100F500073056C197D098E099F0909A11AA12BA19E
:100F60003CA1601771078207930758F38D8D9E8D02
:100F7000009711F00E945704EA89FB8990818F85C0
:100F8000809589238083EE89FF8980819F85892BC5
:100F900080838D8D9E8D0097B1F0DF91CF911F9151
:100FA0000F91FF90EF90DF90CF900C945704EC8955
:100FB000FD899081892380838F8D882309F4A4CFB4
:100FC000E889F9899DCFDF91CF911F910F91FF9013
:100FD000EF90DF90CF9008950F931F93CF93DF93FF
:100FE0008C01D62FC8E06D2F6078C8010E946C0775
:100FF000DD0FC150C1F7C801DF91CF911F910F9153
:101000000C94FC069C01FC01EA5BFF4F9081D90126
:10101000AB5BBF4F8C91981750F4290F311DD9014C
:1010200095962C9130E09F5F9083C90108952FEF32
:101030003FEFFBCFFC01EA5BFF4FE081DC01AB5BE4
:10104000BF4F2C91E21730F4E80FF92FF11D85A165
:1010500090E008958FEF9FEF0895FC01EB5BFF4F49
:10106000208131969081422F491B550BCA0108956A
:10107000CF93DF93FC01248D211106C0EC010E9467
:10108000EC07811106C01C8E81E090E0DF91CF91CA
:10109000089582E08C8FF8CF1F93CF93DF93EC01FC
:1010A000162F1C8E0E949B06882379F0612F660FF5
:1010B000CE010E94EC07811105C01C8EDF91CF91FB
:1010C0001F91089582E08C8FF9CF84E0FCCF90E0EF
:1010D00080E008956F927F928F929F92AF92BF921D
:1010E000CF92DF92EF92FF920F931F93CF93DF93F4
:1010F000782ED12CC3EBD0E001E711E090E9E92E86
:1011000091E0F92E4B01B12CA12CFE018491F80144
:10111000C490F701649070E060E0662099F081115E
:101120000E94A103E62DF0E0EE0FFF1FE05CFE4FF2
:10113000A591B4918C91C82291E080E009F490E0EF
:10114000692F782FF1E06F2787E00E94ED03C5013A
:10115000B4010E948704D3947D10D7CFDF91CF9143
:101160001F910F91FF90EF90DF90CF90BF90AF90C5
:101170009F908F907F906F90089581E080933303CC
:101180000895EF92FF920F931F93CF93DF93C82F91
:101190006091350380913603909137030E944C088B
:1011A0008091360390913703DC01ED91FC91019021
:1011B000F081E02D6C2F09958091360390913703D3
:1011C0000E941906C0913603D09137031091350360
:1011D0001C8E7E01B5E4EB0EF11CF70110823196F6
:1011E0001082CE010E949B06882309F465C0612FFE
:1011F000660F6160CE010E94EC07811159C01C8E00
:1012000010E008E0110FCE010E94FC06182B0150DF
:10121000C9F760E0CE010E946C078D8D9E8D00970E
:1012200011F00E9457041DA310E008E0110FCE0139
:101230000E94FC06182B0150C9F761E0CE010E9404
:101240006C078D8D9E8D009711F00E9457041EA390
:1012500081E0813049F782E0D7018C9312E0CE0122
:101260000E94190690E080E01230D9F48091360394
:1012700090913703DC01ED91FC910284F385E02D20
:101280000995D82FB0E0CB2F80913603909137038A
:10129000DC01ED91FC910284F385E02D09958C0F22
:1012A0009D1FDF91CF911F910F91FF90EF900895B7
:1012B00082E08C8F10E0D3CF84E0FBCF1F93CF93DD
:1012C000DF93182FEB0160913503809136039091E5
:1012D00037030E944C088091360390913703DC015C
:1012E000ED91FC910190F081E02D612F09958091A5
:1012F000360390913703DC01ED91FC910190F08170
:10130000E02D6D2F09958091360390913703DC0114
:10131000ED91FC910190F081E02D6C2F0995C09129
:101320003603D0913703CE010E94190681E09C8DCF
:10133000911180E0DF91CF911F910895CF93DF93BA
:1013400010927D0310927E03E0914E03F0914F03C3
:1013500090818091470380958923808380915703F2
:10136000882349F0E0914A03F0914B0380819091EA
:101370004703892B808380915503909156030097F2
:1013800011F00E945704E0914C03F0914D039081BD
:101390008091460380958923808380915703882319
:1013A00049F0E0914803F091490380819091460310
:1013B000892B8083C4E08091550390915603009758
:1013C00011F00E945704C150B1F780915703882350
:1013D00031F062E070E080E090E00E9487046AE013
:1013E00070E080E090E00E94870462E08091340326
:1013F0000E941B046091350380913603909137035E
:101400000E944C08C0913603D0913703CE010E9450
:101410001906CC8DCC2329F0C1E08C2FDF91CF9120
:10142000089581E00E94C10890932E0380932D03BC
:1014300082E00E94C1089093300380932F0383E0E1
:101440000E94C108909332038093310320912D03B1
:1014500030912E0323383548F9F620912F0330912F
:10146000300321153048C1F68F3F9F47A9F683EE20
:1014700095E890932E0380932D0363EE75E881E049
:101480000E945E09882309F499C060912D03709130
:101490002E03717F726070932E0360932D0381E0A1
:1014A0000E945E0981110DC081E00E94C1089093E5
:1014B0002E0380932D0388279E708115924009F496
:1014C000ABCF60912D0370912E037E7F70932E031E
:1014D00060932D0381E00E945E09811109C081E0C3
:1014E0000E94C10890932E0380932D0390FF94CF08
:1014F00060912D0370912E036C7F70932E03609387
:101500002D0381E00E945E0981110CC081E00E94E0
:10151000C10890932E0380932D0383709927892B04
:1015200009F47ACF80E090E89093320380933103FE
:1015300060E070E883E00E945E0981110BC083E0E7
:101540000E94C10890933203809331038115904823
:1015500009F462CF1092300310922F0370E060E024
:1015600082E00E945E0981110AC082E00E94C108E7
:101570009093300380932F03892B09F44DCF8091F2
:10158000340398EF980F943038F192EF980F94301D
:1015900028F096EE980F933008F03FCF8E3009F484
:1015A00056C08F30F1F1803109F446C0813109F421
:1015B00075C08651883008F030CF0FC081E00E949E
:1015C000C10890932E0380932D03807E9927803E3F
:1015D000910509F05ACF20CF8450813021F52DEBB1
:1015E00038E0309319012093180121E030E0A9017F
:1015F00002C0440F551F8A95E2F7CA019091FE017F
:10160000982B9093FE0193B19093EB0190916B0016
:10161000892B80936B0080916800816080936800C3
:10162000FCCE81E0DCCF823049F42DEB38E0309302
:10163000170120931601D9CF82E0F7CF833049F408
:101640002DEB38E03093150120931401CECF83E0C9
:10165000F7CF843039F42DEB38E030931301209329
:101660001201C3CF853039F42DEB38E030931101EE
:1016700020931001BACF863039F42DEB38E0309347
:101680000F0120930E01B1CF873009F0AECF2DEBC3
:1016900038E030930D0120930C01A7CF80E0A5CF57
:1016A000FB0101900020E9F73197AF01461B570B72
:1016B000DC01ED91FC910280F381E02D0994EF9221
:1016C000FF920F931F93CF93DF93CDB7DEB7A19710
:1016D0000FB6F894DEBF0FBECDBF28E030E010E0BB
:1016E00000E0000F111F016021503109D1F70823DC
:1016F000192342E0E42EF12C82E090E00197880F5C
:10170000991F880F991F980102C0359527958A95D2
:10171000E2F72F703327809127039091280319A2B5
:101720002A30ECF4205D28A3BE01605E7F4F0E944A
:10173000500B81E090E0EA94EF2869F4A1960FB68F
:10174000F894DEBF0FBECDBFDF91CF911F910F91F7
:10175000FF90EF900895EE24E394F12CCFCF295C15
:10176000E2CFFC0180819181009711F00C94CE1999
:1017700008950F931F93CF93DF93EC018881998194
:10178000009759F02A813B812617370730F081E016
:10179000DF91CF911F910F9108958B016F5F7F4F64
:1017A0000E94571A009759F0998388831B830A83F4
:1017B0002C813D81232B59F7FC011082E8CF80E07A
:1017C000E7CFEF92FF920F931F93CF93DF93EC013C
:1017D0007B018A01BA010E94B90B288139818111EC
:1017E00014C02115310519F0C9010E94CE191982C2
:1017F00018821D821C821B821A82CE01DF91CF913A
:101800001F910F91FF90EF9008951D830C83B701F6
:10181000C9010E941D1BF1CFEF92FF920F931F93FE
:10182000CF93DF9300D0CDB7DEB78C01DC011196EA
:101830001C921E9213961C921E92129715961C9241
:101840001E92149750E040E060E771E00E94E10BC7
:101850008091270390912803DC01ED91FC91008495
:10186000F185E02D0995892B99F3809127039091BB
:101870002803DC01ED91FC910084F185E02D0995B0
:10188000892BA9F18091270390912803DC01ED9128
:10189000FC910284F385E02D09958A3009F18D30A1
:1018A000F9F089831A82F801E480F580FFEFEF1ADE
:1018B000FF0AB701C8010E94B90B882389F0D8013B
:1018C0002D913C91119714968D919C91BE016F5F63
:1018D0007F4F820F931F0E941D1BF801F582E48247
:1018E0006AE070E080E090E00E948704BECFC8010B
:1018F0000F900F90DF91CF911F910F91FF90EF907C
:1019000008950F931F93CF93DF93CDB7DEB72C9736
:101910000FB6F894DEBF0FBECDBF6DE571E08091CC
:101920002703909128030E94500BCE0107960E9436
:101930000C0C1A8219821C821B821E821D8262E09C
:1019400070E0CE0101960E94B90B29813A81811184
:1019500034C02115310519F0C9010E94CE191A822F
:1019600019821E821D821C821B828B859C85892B7D
:1019700071F10F81188569817A81C8010E94241B49
:10198000009729F19C01201B310B8901CE010196A2
:101990000E94B10BCE0107960E94B10B812F881FC8
:1019A0008827881F2C960FB6F894DEBF0FBECDBFD8
:1019B000DF91CF911F910F91089582E090E09E8377
:1019C0008D8365E671E0C9010E941D1BCECF0FEF2C
:1019D0001FEFDCCF1F93CF93DF9385ED8093BC0087
:1019E00080917D0190917E01A0917F01B091800155
:1019F0000796A11DB11D23E0B695A79597958795EC
:101A00002A95D1F72091BC0024FD03C01092C50196
:101A100052C040917D0150917E0160917F01709193
:101A20008001452B462B472B69F30097A105B10593
:101A300041F025E32A95F1F700000197A109B109CA
:101A4000E1CF80917C01C1E0C0937B01882399F1B3
:101A5000D091B8001091BA008091BC008A7B80932D
:101A6000BC0060E082E00E94ED0360E083E00E9441
:101A7000ED031092C501C093C7011092C60161E049
:101A800082E00E94ED0361E083E00E94ED0380911B
:101A9000B9008E7F8093B9008091B9008D7F8093CB
:101AA000B90088E48093B80085E48093BC0010936B
:101AB000BA00D093B800DF91CF911F9108951F9283
:101AC0000F920FB60F9211248F939F938091E10094
:101AD0009091E100937F9093E10083FF0FC01092FB
:101AE000E90091E09093EB001092EC0092E3909368
:101AF000ED001092110298E09093F00082FF22C056
:101B000093E09093E9009091F200992319F09AE301
:101B10009093E8009091FA01992341F09091FA0195
:101B200091509093FA01911101C05D9A9091100229
:101B3000992341F0909110029150909310029111CD
:101B400001C0289A84FF18C08091E2008E7E8160D7
:101B50008093E2008091E1008F7E8093E10080918C
:101B6000FB018E7E80618093FB019F918F910F908E
:101B70000FBE0F901F90189580FFF7CF8091E20065
:101B80008E7E80618093E2008091E1008E7E809362
:101B9000E1008091FB018E7E8160E5CF1F920F9264
:101BA0000FB60F921124CF92DF92EF92FF920F9314
:101BB0001F932F933F934F935F936F937F938F93D5
:101BC0009F93AF93BF93EF93FF93CF93DF93CDB7E3
:101BD000DEB76C97DEBFCDBF1092E9008091E800C0
:101BE00083FF25C068E0CE0145960E94080282EF7F
:101BF0008093E8008D8987FF39C09091E80090FFBD
:101C0000FCCF982F907609F034C19E894F89588D6A
:101C10002F89F88C911131C0803861F58091FC01D9
:101C20008093F1001092F1008EEF8093E8006C96A3
:101C30000FB6F894DEBF0FBECDBFDF91CF91FF91FD
:101C4000EF91BF91AF919F918F917F916F915F9134
:101C50004F913F912F911F910F91FF90EF90DF9047
:101C6000CF900F900FBE0F901F9018959EEF9093FE
:101C7000E800C7CF1092F100D5CF913059F481110F
:101C8000D3CF4130510581F68091FC018D7F809347
:101C9000FC01CACF933049F48111C6CF41305105C0
:101CA00019F68091FC018260F2CF953041F4809169
:101CB000E80080FFFCCF20682093E300B5CF96308A
:101CC00009F0A9C00B8D1C8D22E01092E900109242
:101CD000F8011092F701F2122EC01092F601109244
:101CE000F5010E94D7011F8299E09983FA8291E061
:101CF0009E8390EA98879AEF99872091F701309117
:101D0000F801275F3F4F3C832B838D831092E900BE
:101D10001092F8011092F7011093F6010093F5016B
:101D200049E050E0BE016F5F7F4F80E00E94B1014B
:101D30000E94D70179CF1093F6010093F5010E941C
:101D40003B01DC0112960D911C910115110509F45E
:101D500051C1D801ED91FC910480F581E02DBE01C7
:101D60006B5E7F4FC8010995009709F03EC1F801ED
:101D700000851185EACFF3E0FF120EC08F8988231A
:101D800009F440C0823061F440E860E18FE291E004
:101D90000E947E01811148CF81E28093EB0047CF02
:101DA000813029F440E86BE083E291E0F1CF8330A9
:101DB00099F70E943B01DC011296ED90FC908E0198
:101DC0000F5F1F4F6801E114F10479F0D701ED9125
:101DD000FC910680F781E02DB801C7010995080F35
:101DE000111DF701E084F184EECFD8011C92F601B9
:101DF00001900020E9F73197BF016C197D0940E09F
:101E0000C601C6CF6DE071E0FB01449150E080E86F
:101E10000E94B10109CF973009F4BECF983021F468
:101E200081E08093F10000CF993009F0FDCE8370FE
:101E300009F0B2CFE1E2F1E081E031E096E32191F7
:101E4000222371F08093E9003093EB00DF011197BA
:101E50002C912093EC009093ED008F5F873079F701
:101E60008EE78093EA001092EA008F898093110236
:101E7000DBCE8B8D9C8D1092E9001092F8011092B0
:101E8000F7019093F6018093F501898D811192C03D
:101E90008E899D89913A49F4813209F07DCF47E0DE
:101EA00050E064E071E080E0B3CF913209F074CF8C
:101EB000833269F48F89988DB0E0A0E080930001AF
:101EC00090930101A0930201B0930301ADCE803243
:101ED00069F48091E80082FFFCCF67E084E091E044
:101EE0000E9408028BEF8093E8009ECE823209F0B8
:101EF0009BCE8F8980930B01EEEFFFE78591949144
:101F00008B3F9C4D51F1E0E0F8E08091040190910D
:101F10000501A0910601B0910701803B9440A10505
:101F2000B105F1F480910B0180FD1AC0EE3F8AE00B
:101F3000F80789F587E797E79183808380916000B0
:101F40008093F90188E19BE00FB6F894A8958093FF
:101F500060000FBE9093600067CEEEEFFAE0D5CF41
:101F6000808191818737974709F05ECEA89580914F
:101F700060008861809360008091F9018093600027
:101F8000EE3F2AE0F20789F08091FE0A9091FF0A65
:101F90009183808349CE808191818737980751F260
:101FA0009093FF0A8093FE0AC5CF1092FF0A109209
:101FB000FE0A3ACE0E943B01DC0112960D911C9163
:101FC0000115110509F4E8CED801ED91FC910190BD
:101FD000F081E02DBE016B5E7F4FC8010995811134
:101FE00023CEF80100851185EBCF181619060CF4E5
:101FF0001BCED2CEF1E0FF12BECE61E171E004CF84
:102000001F920F920FB60F9211242F933F934F936D
:102010005F936F937F938F939F93AF93BF93EF9350
:10202000FF9382E692E00E949302FF91EF91BF91AD
:10203000AF919F918F917F916F915F914F913F9160
:102040002F910F900FBE0F901F9018951F920F9217
:102050000FB60F9211242F938F939F93EF93FF93BB
:10206000E0917202F09173028081E0917802F09128
:10207000790282FD1BC0908180917B028F5F8F73FC
:1020800020917C02821741F0E0917B02F0E0EE5952
:10209000FD4F958F80937B02FF91EF919F918F91E0
:1020A0002F910F900FBE0F901F9018958081F4CF45
:1020B0001F920F920FB60F9211242F933F938F937D
:1020C0009F93AF93BF938091ED019091EE01A0910A
:1020D000EF01B091F0013091EC0123E0230F2D3797
:1020E00058F50196A11DB11D2093EC018093ED01DF
:1020F0009093EE01A093EF01B093F0018091F10174
:102100009091F201A091F301B091F4010196A11D0B
:10211000B11D8093F1019093F201A093F301B0936C
:10212000F401BF91AF919F918F913F912F910F90AB
:102130000FBE0F901F90189526E8230F0296A11D41
:10214000B11DD2CF1F920F920FB60F9211248F9311
:102150000FB6F894A8958091600088618093600024
:10216000109260000FBE8F910F900FBE0F901F90C6
:1021700018951F920F920FB60F9211242F933F9331
:102180004F935F936F937F938F939F93AF93BF937F
:10219000CF93EF93FF9393B18091EB01C091FE0138
:1021A000C923282F2095C2232091FD018223292FA6
:1021B00020958223C82B9093EB01C4FF05C0E091CA
:1021C0001201F09113010995C5FF05C0E0911001BE
:1021D000F09111010995C6FF05C0E0910E01F09143
:1021E0000F010995C7FF05C0E0910C01F0910D01A9
:1021F0000995C1FF05C0E0911801F09119010995F9
:10220000C2FF05C0E0911601F09117010995C3FFC7
:1022100005C0E0911401F09115010995FF91EF912E
:10222000CF91BF91AF919F918F917F916F915F916E
:102230004F913F912F910F900FBE0F901F901895C7
:102240001F920F920FB60F9211242F933F934F932B
:102250005F936F937F938F939F93AF93BF93EF930E
:10226000FF938091B900887F803609F44AC0F0F569
:10227000883209F4A5C018F5803109F499C0B8F482
:10228000882309F4F5C0883009F492C0FF91EF91DA
:10229000BF91AF919F918F917F916F915F914F917E
:1022A0003F912F910F900FBE0F901F90189588317E
:1022B00009F486C0803251F78093C40114C0803481
:1022C00009F49BC040F48033B9F38833F9F6809366
:1022D000C40185ECAEC0803509F483C0883509F4AB
:1022E00094C0883499F60E94EA0CD0CF883909F45A
:1022F0008AC038F5883729F050F4883611F08037D5
:1023000029F683E08093C5011092C30155C0883837
:1023100009F479C0803919F0803809F0B7CF80917D
:10232000C301803208F06FC0E091C30181E08E0FDD
:102330008093C3018091BB00F0E0ED55FE4F808398
:102340003BC0803B39F0D0F4803A09F477C0883A3A
:1023500009F09CCF84E08093C5011092A2011092F5
:10236000A101F0E0E0E009958091A10181110FC089
:1023700081E08093A1011092810109C0803C09F4A1
:10238000A8CF883C09F4A5CF883B09F07FCFE09126
:10239000A20181E08E0F8093A201F0E0EF57FE4F83
:1023A00080818093BB009091A2018091A10129C0FE
:1023B0008091EA018093BB0085EC8093BC0066CFDE
:1023C0009091E9018091E801981758F5E091E901B1
:1023D00081E08E0F8093E901F0E0E853FE4F8081A9
:1023E000E9CFE091E90181E08E0F8093E9018091CE
:1023F000BB00F0E0E853FE4F80839091E9018091AB
:10240000E8019817C8F285E8D8CFE091E90181E0AA
:102410008E0F8093E9018091BB00F0E0E853FE4FFE
:1024200080838091C70181115ECF81E08093C601D6
:1024300084EA8093BC001092C50128CF85EC80937C
:10244000BC001092C5018091C301803230F4E0914C
:10245000C301F0E0ED55FE4F10826091C30170E0C2
:1024600083EA91E0F0E0E0E009951092C3010ECF1D
:102470001092C40138CFCF93DF93C2E6D2E01B8223
:102480001A8248EE53E060E070E04C835D836E8317
:102490007F838BE291E0998388838DEC90E09D8728
:1024A0008C878CEC90E09F878E8788EC90E0998BEE
:1024B000888B89EC90E09B8B8A8B8AEC90E09D8BDB
:1024C0008C8B8EEC90E09F8B8E8B198E1A8E1B8ED0
:1024D0001C8EE2E1F2E0138212824483558366830C
:1024E00077838DE391E0918380838FEF9FEF9587D2
:1024F0008487A8E3B3E013961C921E921297149659
:102500004D935D936D937C9317978FE491E01196B3
:102510009C938E9383E01C968C931C9782E01D966F
:102520008C931D9781E05F968C935F9790968C9328
:10253000909782E090E05E969C938E935D97919643
:102540004D935D936D937C939497ECE8F1E08491C7
:10255000EDE6F1E0E4911E96EC931E9790E0880F73
:10256000991FFC01E45AFE4F2591349151963C93FA
:102570002E935097FC01E25BFE4F259134915596C6
:102580003C932E935497FC01E05CFE4F859194910F
:1025900059969C938E935897EBE8F1E08491ECE682
:1025A000F1E0E4911F96EC931F9790E0880F991F3C
:1025B000FC01E45AFE4F2591349153963C932E939F
:1025C0005297FC01E25BFE4F2591349157963C9364
:1025D0002E935697FC01E05CFE4F859194915B969B
:1025E0009C938E935A97EBE2F3E088E08187108604
:1025F000118210821382128215821482178216822F
:1026000088E48287B487A387EFEFF2E0D1A7C0A761
:1026100089E082A78DE083A7DF91CF910895CF93C2
:10262000DF93CDB7DEB728970FB6F894DEBF0FBEA5
:10263000CDBF789484B5826084BD84B5816084BD4B
:1026400085B5826085BD85B5816085BD80916E0050
:10265000816080936E001092810080918100826081
:1026600080938100809181008160809381008091BE
:1026700080008160809380008091910082608093CF
:1026800091008091910081608093910080919000F1
:102690008160809390008091C10084608093C1002C
:1026A0008091C10082608093C1008091C1008160EF
:1026B0008093C1008091C30081608093C3008091AA
:1026C000C00082608093C0008091C20081608093CE
:1026D000C20080917A00846080937A0080917A00B1
:1026E000826080937A0080917A00816080937A0082
:1026F00080917A00806880937A0010921102109283
:10270000FC011092FB018091D70081608093D7007B
:1027100080EA8093D80089B5806189BD89B58260DF
:1027200089BD09B400FEFDCF61E070E080E090E07B
:102730000E9487048091D8008F7C80618093D800AC
:102740008091E000807F8093E0008091E1008E7EA8
:102750008093E1008DE08093E200559A209A68EE24
:1027600073E080E090E00E94870461E087E00E94CF
:102770001B0461E085E00E941B0461E085E00E948B
:10278000ED0364E670E080E090E00E948704E09151
:102790007202F091730282E08083E0916E02F09108
:1027A0006F021082E0917002F09171028FEC8083D1
:1027B00010927A02E0917602F091770286E08083AF
:1027C000E0917402F0917502808180618083E091D4
:1027D0007402F0917502808188608083E0917402B8
:1027E000F0917502808180688083E0917402F0919D
:1027F000750280818F7D80838FEF9FEF90931F0202
:1028000080931E0264E670E080E090E00E948704FE
:1028100061E0809129030E94ED0361E080912A0329
:102820000E94ED0361E080912A030E941B0461E095
:10283000809129030E941B0484E1EFEFF2E0DF01A5
:10284000282F1D922A95E9F7E3E1F3E0DF011D92BD
:102850008A95E9F768E671E0809127039091280353
:102860000E94500BCE0101960E940C0C69817A8166
:102870008FEF92E00E941D1BCE0101960E94B10BCA
:1028800061E771E080912703909128030E94500B2B
:10289000CE0101960E940C0C69817A8183E193E05C
:1028A0000E941D1BCE0101960E94B10B64EF71E0E6
:1028B00085E00E946A080E94BA040E94810C81117E
:1028C00005C06AEF70E085E00E946A080E949E09D8
:1028D000811105C064EF71E085E00E946A08729A78
:1028E00060E085E10E94ED0360E084E10E94ED0379
:1028F00060E083E10E94ED0360E082E10E94ED036D
:102900006A9A61E085E10E941B0461E084E10E9413
:102910001B0461E083E10E941B0461E082E10E94EC
:102920001B0460E085E10E94ED0360E084E10E9409
:10293000ED0360E083E10E94ED0360E082E10E942C
:10294000ED03729860E087E00E94ED038091D8006B
:102950008F778093D8008091D8008E7F8093D800A5
:102960008091D8008F7E8093D8008091D8008F7D91
:102970008093D8008091D7008E7F8093D70080917C
:10298000DA008E7F8093DA008091E000816080938E
:10299000E0002FE4E22E21E0F22E729A61E085E160
:1029A0000E94ED0360E084E10E94ED0360E083E1BA
:1029B0000E94ED0360E082E10E94ED037298812C99
:1029C000912C5401D12CC12C80913303882309F41C
:1029D0006FC080E00E94C10890932C0380932B036A
:1029E00020912E032F8318860F8118850E701127D2
:1029F000F801E350FB4E0C942C190C150E150D1616
:102A00000E1510160E1513160E1516160E15191690
:102A10000E1519160E15191608E110E097FF0CC1D6
:102A20008095909590932C0380932B0322242A94D5
:102A3000322C60912B0370912C0390E080E00E9477
:102A4000C01620E030E040E05CE30E94FD162B0160
:102A50003C01B80190E080E00E94C0169B01AC01EF
:102A6000C301B2010E94FD162B013C01B10190E0AF
:102A700080E00E94C0169B01AC01C301B2010E941C
:102A8000FD161092330320E030EA4DEC54E40E942E
:102A9000F2179B01AC010E94FD169B01AC01C50120
:102AA000B4010E94F3174B015C013FEFC31AD30A34
:102AB000B0EDCB16B7E0DB0609F086CF20E030E0C2
:102AC0004AEF54E4C501B4010E945F180E94D71870
:102AD0002CEF39EA41E75DE30E94FD162BEB3AE962
:102AE00042E85FE30E94FD162AE330E34FE55EE330
:102AF0000E94F21760930002709301028093020219
:102B00009093030260E085E10E94ED0360E084E1C0
:102B10000E94ED0360E083E10E94ED0360E082E14A
:102B20000E94ED0372988091340398EF980F9430CF
:102B300008F486C092EF980F943008F492C096EE95
:102B4000980F933008F48DC060E088E00E941B0469
:102B500062E070E080E090E00E94870460E085E041
:102B60000E94ED0362E070E080E090E00E94870444
:102B7000809165008E7F809365000E94D4040E943E
:102B8000BA040E94810C60E087E00E94ED0362E0DD
:102B900070E080E090E00E94870460E089E00E949D
:102BA0001B0460E08DE00E941B0464E670E080E09E
:102BB00090E00E94870430E020E050E040E069E0CF
:102BC00070E08FEF91E00E947F0561E085E00E9458
:102BD000ED0362E070E080E090E00E9487040E94D4
:102BE0009E09811105C06AEF70E084E00E946A08C6
:102BF00061E089E00E941B0461E08DE00E941B04FB
:102C000020E030E0232B09F4C8CE0E947F02882305
:102C100009F4C3CE0E940000C0CE00E110E0FECE59
:102C200008E010E0FBCE04E010E0F8CE02E010E097
:102C3000F5CE01E010E0F2CE22242394312CF9CE1F
:102C400084508130E9F0823009F441C0833009F4C6
:102C500044C0843009F046C0F0921301E0921201A2
:102C600013C08E30C9F18F3051F0803179F181314C
:102C700009F44DC08651883008F066CFE2CF81E07C
:102C8000F0921901E0921801A1E0B0E002C0AA0F91
:102C9000BB1F8A95E2F7CD0180959091FE019823A4
:102CA0009093FE019091FD0198239093FD019091E6
:102CB0006B00892380936B0080916B00811144CF5E
:102CC000809168008E7F809368003ECF82E0F09212
:102CD0001701E0921601D8CF83E0F0921501E0923F
:102CE0001401D2CF853029F4F0921101E092100145
:102CF000CBCF863029F4F0920F01E0920E01C4CFC1
:102D0000873011F6F0920D01E0920C01BDCF80E00A
:102D1000BBCF8FE491E090933903809338031092F6
:102D20005703E0914C03F0914D039081809146034D
:102D300080958923808380915703882349F0E0910F
:102D40004803F0914903808190914603892B808349
:102D5000E0914E03F0914F0390818091470380955D
:102D60008923808380915703882349F0E0914A03A7
:102D7000F0914B03808190914703892B80830895C4
:102D8000E89409C097FB3EF4909580957095619505
:102D90007F4F8F4F9F4F9923A9F0F92F96E9BB27BB
:102DA0009395F695879577956795B795F111F8CF37
:102DB000FAF4BB0F11F460FF1BC06F5F7F4F8F4FA2
:102DC0009F4F16C0882311F096E911C0772321F098
:102DD0009EE8872F762F05C0662371F096E8862F30
:102DE00070E060E02AF09A95660F771F881FDAF787
:102DF000880F9695879597F908950E9410170C945F
:102E000081170E94731738F00E947A1720F09523DB
:102E100011F00C946A170C94701711240C94B517C8
:102E20000E94921770F3959FC1F3950F50E0551FC4
:102E3000629FF001729FBB27F00DB11D639FAA270F
:102E4000F00DB11DAA1F649F6627B00DA11D661F5E
:102E5000829F2227B00DA11D621F739FB00DA11D7F
:102E6000621F839FA00D611D221F749F3327A00D39
:102E7000611D231F849F600D211D822F762F6A2FD5
:102E800011249F5750409AF0F1F088234AF0EE0F3A
:102E9000FF1FBB1F661F771F881F91505040A9F767
:102EA0009E3F510580F00C946A170C94B5175F3F54
:102EB000E4F3983ED4F3869577956795B795F795A3
:102EC000E7959F5FC1F7FE2B880F911D969587951B
:102ED00097F9089597F99F6780E870E060E008959A
:102EE0009FEF80EC089500240A9416161706180622
:102EF0000906089500240A941216130614060506FE
:102F00000895092E0394000C11F4882352F0BB0F8E
:102F100040F4BF2B11F460FF04C06F5F7F4F8F4FF1
:102F20009F4F089557FD9058440F551F59F05F3F2C
:102F300071F04795880F97FB991F61F09F3F79F0DB
:102F400087950895121613061406551FF2CF46955D
:102F5000F1DF08C0161617061806991FF1CF8695DF
:102F60007105610508940895E894BB2766277727C3
:102F7000CB0197F908952F923F924F925F926F92F3
:102F80007F928F929F92AF92BF92CF92DF92EF92F9
:102F9000FF920F931F93CF93DF93CDB7DEB7CA1B7A
:102FA000DB0B0FB6F894DEBF0FBECDBF09942A88A5
:102FB000398848885F846E847D848C849B84AA844D
:102FC000B984C884DF80EE80FD800C811B81AA81DA
:102FD000B981CE0FD11D0FB6F894DEBF0FBECDBFA5
:102FE000ED0108955058BB27AA270E940A180C9497
:102FF00081170E94731738F00E947A1720F039F475
:103000009F3F19F426F40C9470170EF4E095E7FB3B
:103010000C946A17E92F0E94921758F3BA176207A7
:1030200073078407950720F079F4A6F50C94B4177C
:103030000EF4E0950B2EBA2FA02D0B01B9019001D3
:103040000C01CA01A0011124FF27591B99F0593F17
:1030500050F4503E68F11A16F040A22F232F342F5F
:103060004427585FF3CF469537952795A795F040AD
:103070005395C9F77EF41F16BA0B620B730B840BC2
:10308000BAF09150A1F0FF0FBB1F661F771F881F7A
:10309000C2F70EC0BA0F621F731F841F48F48795D2
:1030A00077956795B795F7959E3F08F0B0CF9395C4
:1030B000880F08F09927EE0F9795879508950E943D
:1030C00073180C9481170E947A1758F00E94731796
:1030D00040F029F45F3F29F00C946A1751110C94C9
:1030E000B5170C9470170E94921768F39923B1F3E7
:1030F000552391F3951B550BBB27AA27621773071E
:10310000840738F09F5F5F4F220F331F441FAA1FB1
:10311000A9F335D00E2E3AF0E0E832D0915050406D
:10312000E695001CCAF72BD0FE2F29D0660F771F1B
:10313000881FBB1F261737074807AB07B0E809F001
:10314000BB0B802DBF01FF2793585F4F3AF09E3F86
:10315000510578F00C946A170C94B5175F3FE4F3AF
:10316000983ED4F3869577956795B795F7959F5FC9
:10317000C9F7880F911D9695879597F90895E1E015
:10318000660F771F881FBB1F621773078407BA0774
:1031900020F0621B730B840BBA0BEE1F88F7E095CF
:1031A000089519F416F40C9470170C9417190E94D2
:1031B0009A17B8F39923C9F3B6F39F57550B87FFB6
:1031C0000E9425190024A0E640EA900180585695F7
:1031D000979528F4805C660F771F881F20F02617CC
:1031E0003707480730F4621B730B840B2029312901
:1031F0004A2BA69517940794202531254A2758F77E
:10320000660F771F881F20F026173707480730F40E
:10321000620B730B840B200D311D411DA09581F7AE
:10322000B901842F9158880F9695879508959F3FEF
:1032300031F0915020F4879577956795B795880F71
:10324000911D9695879597F9089591505040660F76
:10325000771F881FD2F70895EE0FFF1F0590F49196
:10326000E02D09940F931F93CF93DF938230910544
:1032700010F482E090E0E0918103F091820330E06D
:1032800020E0B0E0A0E0309799F42115310509F471
:103290004AC0281B390B24303105D8F58A819B811F
:1032A0006115710589F1FB0193838283FE0111C0D1
:1032B000408151810281138148175907E0F0481776
:1032C000590799F4109761F012960C931297139680
:1032D0001C933296CF01DF91CF911F910F910895EA
:1032E0000093810310938203F4CF2115310551F02F
:1032F0004217530738F0A901DB019A01BD01DF0134
:10330000F801C1CFEF01F9CF90938203809381033D
:10331000CDCFFE01E20FF31F81939193225031092B
:1033200039832883D7CF20917F0330918003232BCB
:1033300041F420911C0130911D01309380032093B2
:103340007F0320911A0130911B012115310541F4B1
:103350002DB73EB740911E0150911F01241B350B24
:10336000E0917F03F0918003E217F307A0F42E1B96
:103370003F0B2817390778F0AC014E5F5F4F2417D9
:10338000350748F04E0F5F1F5093800340937F0333
:10339000819391939FCFF0E0E0E09CCFCF93DF93B8
:1033A0000097E9F0FC01329713821282A091810309
:1033B000B0918203ED0130E020E01097A1F420816C
:1033C0003181820F931F20917F0330918003281752
:1033D000390709F061C0F0938003E0937F03DF9128
:1033E000CF910895EA01CE17DF07E8F54A815B81A6
:1033F0009E0141155105B1F7E901FB83EA8349912B
:103400005991C40FD51FEC17FD0761F4808191819C
:103410000296840F951FE9019983888382819381A5
:103420009B838A83F0E0E0E012968D919C91139744
:103430000097B9F52D913C911197CD010296820F1D
:10344000931F20917F03309180032817390739F6A5
:10345000309751F51092820310928103B09380034C
:10346000A0937F03BCCFD383C28340815181840F5B
:10347000951FC817D90761F44E5F5F4F8881998106
:10348000480F591F518340838A819B819383828394
:103490002115310509F0B0CFF0938203E093810349
:1034A0009ECFFD01DC01C0CF13821282D7CFB0E0E6
:1034B000A0E0EDE5FAE10C94BD178C01009751F402
:1034C000CB010E9432198C01C801CDB7DEB7E0E113
:1034D0000C94D917FC01E60FF71F9C01225031090B
:1034E000E217F30708F49DC0D901CD91DC91119743
:1034F000C617D70798F0C530D10530F3CE01049731
:103500008617970708F3C61BD70B2297C193D19351
:103510006D937C93CF010E94CE19D6CF5B01AC1A7C
:10352000BD0A4C018C0E9D1EA0918103B0918203B7
:10353000512C412CF12CE12C109731F580917F0317
:10354000909180038815990509F05CC046165706CE
:1035500008F058C080911A0190911B01009741F426
:103560008DB79EB740911E0150911F01841B950B92
:10357000E817F90708F055C0F0938003E0937F0344
:10358000F90171836083A0CF8D919C911197129660
:103590006C90129713967C901397A815B90559F55E
:1035A0006C0142E0C40ED11CCA14DB0420F1AC0152
:1035B0004A195B09DA011296159780F062827382CC
:1035C00051834083D9016D937C93E114F10471F030
:1035D000D7011396FC93EE93129776CF22968C0F19
:1035E0009D1FF90191838083F301EFCFF093820354
:1035F000E093810369CF4816590608F42C017D0138
:10360000D3019ACFCB010E9432197C01009749F077
:10361000AE01B8010E94141BC8010E94CE19870197
:1036200053CF10E000E050CFFB01DC0102C001905D
:103630000D9241505040D8F70895FB01DC010190F4
:103640000D920020E1F70895FB0151915523A9F057
:10365000BF01DC014D9145174111E1F759F4CD014E
:103660000190002049F04D9140154111C9F3FB0133
:103670004111EFCF81E090E00197089510E0C5ED92
:10368000D0E004C0FE010E942C192196C63DD1074E
:06369000C9F7F894FFCF1A
:10369600FFFFFFFF00E10000000000004F014F01A7
:1036A6004F014F014F014F014F010000830380007E
:1036B60000C1808100000000000000B40215024233
:1036C600020003730251026502000000002003EEAF
:1036D60004410336038703450363030000000038F3
:1036E60008FD056708EF052D0802081A084154244D
:1036F600503D310D004F4B00415424493D31300DB2
:0A37060000415424493D31310D000B
:00000001FF
