:100000000C94D6000C94FE000C94FE000C94FE00A0
:100010000C94FE000C94FE000C94FE000C94FE0068
:100020000C94FE000C943E0A0C94FB060C946A0798
:100030000C94FE000C94FE000C94FE000C94FE0048
:100040000C94FE000C94FE000C94FE000C94FE0038
:100050000C94FE000C94FE000C94FE000C94F40929
:100060000C94FE000C94C2090C949C090C94FE00A4
:100070000C94FE000C94FE000C94FE000C94FE0008
:100080000C94FE000C94FE000C94FE000C94FE00F8
:100090000C944D0A0C94FE000C94FE000C94FE008F
:1000A0000C94FE000C94FE000C94FE000000000274
:1000B00000090F0000030401000C00000000000014
:1000C0000000000000000000000000080B00020219
:1000D00002000009040000010202000005240010D3
:1000E000010524010101042402060524060001077C
:1000F00005810310004009040100020A0000000706
:1001000005020240000007058302400000040309C5
:100110000412010002EF0201404123368000010178
:1001200002030141726475696E6F204C4C430041BB
:10013000726475696E6F204C656F6E6172646F00DA
:10014000000000002300260029002C002F000000E2
:100150000000240027002A002D00300000000000CD
:10016000250028002B002E00310004080201104059
:100170008040102040804080080204018040201010
:1001800002011080102040402004040404040304F1
:100190000502020202040302020202060606060625
:1001A0000604040202020404680BC10D11241FBEE0
:1001B000CFEFDAE0DEBFCDBF11E0A0E0B1E0E6E1D5
:1001C000FCE102C005900D92A236B107D9F723E0F9
:1001D000A2E6B1E001C01D92A433B207E1F710E03E
:1001E000C5EDD0E004C02197FE010E94F80DC43D8A
:1001F000D107C9F70E947C0C0C94FE0D0C940000F2
:10020000FC018091F201882311F13FB7F89482E05C
:100210008093E9002091F200822F90E018161906D1
:1002200014F481E090E0882339F0289844E6409364
:10023000F1014091F1004083222339F02091F20036
:10024000211103C02BE62093E8003FBF08958FEFF4
:100250009FEF08952FB7F89483E08093E900909181
:10026000E800892F807295FF04C09091F20080E42D
:10027000891B2FBF08958091E90181110DC082E093
:100280008093E50184E08093E6011092E8011092EA
:10029000E70181E08093E90185EE91E00895CF9335
:1002A000DF931F92CDB7DEB76983DC01ED91FC913E
:1002B0000280F381E02D41E050E0BE016F5F7F4F8F
:1002C00009950F90DF91CF91089583E08093E90025
:1002D0008091F200882319F08AE38093E800089562
:1002E0000E942A0190E00895CF93DF931F92CDB72B
:1002F000DEB7FC018485958597FD08C02FEF3FEFA1
:10030000358724870F90DF91CF910895CE01019614
:100310000E940001019719F4898190E0F3CF8FEFDB
:100320009FEFF0CF0F931F93CF93DF931F92CDB723
:10033000DEB78C01FC018485958597FF0BC0CE014B
:1003400001960E940001019771F4898190E0F80103
:1003500095878487F801848595850F90DF91CF91EB
:100360001F910F9108958FEF9FEFF1CFFC018485CE
:10037000958597FD0BC09FB7F89482E08093E900C4
:100380008091F2009FBF90E0019608959FB7F89486
:1003900082E08093E9008091F2009FBF90E0089591
:1003A0004091DF015091E0012091DD013091DE01AB
:1003B00042175307B4F49091E8009570E1F39091DF
:1003C000E80092FD19C08093F1008091DF019091C7
:1003D000E00101968F739927892B19F48EEF809392
:1003E000E8008091DF019091E00101969093E00197
:1003F0008093DF0181E0089580E00895EF92FF92FD
:100400000F931F93CF93DF93F82E192FE62E042F0F
:1004100081E0860F880F0E94D00183E00E94D00106
:10042000CF2DD12FEC0EFD2EF11CCE15DF05B9F02E
:1004300007FF13C0FE0184910E94D001182F80E0B5
:100440000E94D001812321968111EFCFDF91CF91BE
:100450001F910F91FF90EF9008958881EDCF81E07B
:10046000F5CFDF92EF92FF920F931F93CF93DF931D
:10047000D82E8A01EB017B01E40EF51ECE15DF05B7
:1004800059F0D7FE12C0FE0184910E94D00121963E
:100490008111F4CF0FEF1FEFC801DF91CF911F91B2
:1004A0000F91FF90EF90DF9008958881EECF0F932A
:1004B0001F93CF93DF931F92CDB7DEB782E089837E
:1004C00042E450E06BEC70E080E80E9431020E9450
:1004D0003B01DC0112960D911C910115110589F06B
:1004E000D801ED91FC910280F381E02DBE016F5F98
:1004F0007F4FC801099597FD04C0F801008511855B
:10050000ECCF89810F90DF91CF911F910F910895CA
:10051000615030F02091F100FC0120830196F8CF6A
:10052000289884E68093F10108950895AF92BF92D0
:10053000CF92DF92EF92FF920F931F93CF93DF93AF
:100540006C017B018B01040F151FEB015E01AE18DE
:10055000BF08C017D10759F06991D601ED91FC9100
:100560000190F081E02DC6010995892B79F7C5012D
:10057000DF91CF911F910F91FF90EF90DF90CF907F
:10058000BF90AF900895FC01538D448D252F30E02E
:10059000842F90E0821B930B541710F0CF96089590
:1005A00001970895FC01918D828D981761F0A28DBD
:1005B000AE0FBF2FB11D5D968C91928D9F5F9F7383
:1005C000928F90E008958FEF9FEF0895FC01918D39
:1005D000828D981731F0828DE80FF11D858D90E0A6
:1005E00008958FEF9FEF0895FC01918D228D892F43
:1005F00090E0805C9F4F821B91098F73992708952B
:1006000083E492E00E94F40221E0892B09F420E0C7
:10061000822F089580E090E0892B29F00E9400034A
:1006200081110C9400000895FC01A48DA80FB92F2E
:10063000B11DA35ABF4F2C91848D90E001968F730A
:100640009927848FA689B7892C93A089B1898C9129
:1006500082748C93938D848D981306C00288F389DD
:10066000E02D80818F7D80830895EF92FF920F931C
:100670001F93CF93DF93EC0181E0888F9B8D8C8D4E
:10068000981319C0E889F989808185FF14C09FB744
:10069000F894EE89FF896083E889F9898081827402
:1006A00080839FBF81E090E0DF91CF911F910F91F8
:1006B000FF90EF900895F62E0B8D10E00F5F1F4F07
:1006C0000F731127E02E8C8D8E110CC00FB607FC16
:1006D000FACFE889F989808185FFF5CFCE010E94A4
:1006E0001403F1CFEB8DEC0FFD2FF11DE35AFF4FFB
:1006F000F0829FB7F8940B8FEA89FB898081806232
:10070000CFCFCF93DF93EC01888D8823B9F0AA89EE
:10071000BB89E889F9898C9185FD03C0808186FDBC
:100720000DC00FB607FCF7CF8C9185FFF2CF80810B
:1007300085FFEDCFCE010E941403E9CFDF91CF9169
:100740000895282F30E0F901E455FF4F9491F90105
:10075000E659FE4F849127573E4FF90124912223F9
:1007600009F430C09923E9F091509F30D0F4E92F7B
:10077000F0E0E354FC4F0C94F80DEB03EF03CC03D3
:10078000E303E703D103D103D103F203F803FC032E
:1007900000040604D1030A04909180009F7790938F
:1007A0008000E22FF0E0EE0FFF1FE45AFE4FA5910C
:1007B000B4919FB7F894EC91611132C080958E236B
:1007C0008C939FBF0895909180009F7DE8CF90917A
:1007D0008000977FE4CF94B59F7794BDE2CF94B526
:1007E0009F7DFBCF909190009F7790939000D9CF01
:1007F000909190009F7DF9CF90919000977FF5CFD9
:100800009091C0009F779093C000CBCF9091C00093
:100810009F7DF9CF9091C200977F9093C200C1CF86
:100820008E2BCECF8230910538F0880F991F880F1C
:10083000991F05970197F1F708953FB7F8948091B4
:10084000D9019091DA01A091DB01B091DC0126B5CC
:10085000A89B05C02F3F19F00196A11DB11D3FBFF8
:10086000BA2FA92F982F8827BC01CD01620F711DC7
:10087000811D911D42E0660F771F881F991F4A95C1
:10088000D1F708958F929F92AF92BF92CF92DF924D
:10089000EF92FF924B015C010E941D046B017C01F1
:1008A0000E941D046C197D098E099F09683E7340E2
:1008B00081059105A8F321E0821A9108A108B108E9
:1008C00088EEC80E83E0D81EE11CF11C811491044F
:1008D000A104B10429F7FF90EF90DF90CF90BF9073
:1008E000AF909F908F9008958F929F92AF92BF92FA
:1008F000CF92DF92EF92FF920F931F93CF93DF93EC
:100900006C017B018A0180911901882309F45CC084
:100910008091F201882309F457C08091E40180FF9F
:1009200005C08091E00082608093E000E801B12C76
:100930008AEFA82E93E0892E2AE3922E209711F4B5
:10094000BB20D9F10E942A0181110AC0AA94AA20D1
:10095000D9F161E070E080E090E00E944204EECFC7
:100960008C171D0611F00CF08C2F9FB7F894809215
:10097000E9002091E80025FD02C09FBFDFCF282FAE
:1009800030E0C21BD30BF701815020F0419140931E
:10099000F100FACFE20EF31EBB2021F09092E800A6
:1009A000B12CEBCF8091E80085FDE7CF9092E80075
:1009B000BB24B394209709F3F3CF5D9884E680932A
:1009C000E301101611063CF081E090E0F6019383FC
:1009D000828310E000E0C801DF91CF911F910F9159
:1009E000FF90EF90DF90CF90BF90AF909F908F904F
:1009F000089520918901260F3327331F21323105B5
:100A0000ECF42091AD01FC0190E080E0243069F02D
:100A100082E00895A09189012191AC0147595E4F70
:100A2000A40FB52FB11D2C930196861798F38091D2
:100A30008901680F6093890180E0089581E008953D
:100A400008958FEF9FEF08958FEF9FEF08958091A6
:100A5000620190E09195819591090895CF93DF937C
:100A6000CB01EA01642F0E94F904CE01DF91CF91FE
:100A70000895CF93DF931F92CDB7DEB7698361E00E
:100A8000CE0101960E94F90481E090E00F90DF9181
:100A9000CF9108959C01FC01EA5BFF4F9081D90141
:100AA000AB5BBF4F8C91981750F4290F311DD901C2
:100AB00095962C9130E09F5F9083C90108952FEFA8
:100AC0003FEFFBCFFC01EA5BFF4FE081DC01AB5B5A
:100AD000BF4F2C91E21730F4E80FF92FF11D85A1DB
:100AE00090E008958FEF9FEF0895FC01EB5BFF4FBF
:100AF000208131969081422F491B550BCA010895E0
:100B0000CF92DF92EF92FF920F931F93CF93DF93D9
:100B1000EC01062F8C8D8111DCC018E08E8580954C
:100B200007FDE2C0E889F989908189238083EC89F7
:100B3000FD8980819E85892B80838D8D9E8D009778
:100B400011F00E941204EE89FF8990818F858095B3
:100B5000892380838F8D882331F0EA89FB89808106
:100B60009F85892B808388A1882349F18FB7F894CA
:100B7000C090D501D090D601E090D701F090D80177
:100B80008FBFEA8DFB8D80819F858923C1F42FB7AC
:100B9000F8948091D5019091D601A091D701B091A0
:100BA000D8012FBF8C199D09AE09BF0949A15AA1CF
:100BB0006BA17CA184179507A607B70710F38D8D4D
:100BC0009E8D009711F00E941204EA89FB899081A2
:100BD0008F85809589238083EE89FF8980819F8519
:100BE000892B80838D8D9E8D009711F00E941204B9
:100BF000000F115009F092CFEC89FD8990818E850C
:100C00008095892380838F8D882331F0E889F98945
:100C100080819E85892B8083EE89FF8990818F85D5
:100C20008095892380838F8D882331F0EA89FB8921
:100C300080819F85892B808388A1882349F18FB784
:100C4000F8940091D5011091D6012091D7013091EF
:100C5000D8018FBFEA8DFB8D80819F858923C1F4E8
:100C60004FB7F8948091D5019091D601A091D7010A
:100C7000B091D8014FBF801B910BA20BB30B49A1C0
:100C80005AA16BA17CA184179507A607B70710F39B
:100C90008D8D9E8D009711F00E941204E88DF98DC4
:100CA00010818E851823EA89FB8990818F85809534
:100CB00089238083EE89FF8980819F85892B8083AA
:100CC0008D8D9E8D009711F00E941204111118C095
:100CD0001C8E81E090E0DF91CF911F910F91FF90EA
:100CE000EF90DF90CF900895EC89FD899081892362
:100CF00080838F8D882309F420CFE889F98919CF63
:100D000082E08C8FE6CF90E080E008951F93CF9330
:100D1000DF9385ED8093BC00809165019091660121
:100D2000A0916701B09168010796A11DB11D23E054
:100D3000B695A795979587952A95D1F72091BC00F0
:100D400024FD03C01092AD0152C040916501509145
:100D500066016091670170916801452B462B472B16
:100D600069F30097A105B10541F025E32A95F1F754
:100D700000000197A109B109E1CF80916401C1E0B0
:100D8000C0936301882399F1D091B8001091BA0003
:100D90008091BC008A7B8093BC0060E082E00E946E
:100DA000A10360E083E00E94A1031092AD01C09313
:100DB000AF011092AE0161E082E00E94A10361E008
:100DC00083E00E94A1038091B9008E7F8093B900D7
:100DD0008091B9008D7F8093B90088E48093B8003A
:100DE00085E48093BC001093BA00D093B800DF91E3
:100DF000CF911F9108951F920F920FB60F92112459
:100E00008F939F938091E1009091E100937F909365
:100E1000E10083FF0FC01092E90091E09093EB0096
:100E20001092EC0092E39093ED001092F20198E0A2
:100E30009093F00082FF22C093E09093E90090919C
:100E4000F200992319F09AE39093E8009091E3015E
:100E5000992341F09091E30191509093E301911116
:100E600001C05D9A9091F101992341F09091F101B7
:100E700091509093F101911101C0289A84FF18C0FC
:100E80008091E2008E7E81608093E2008091E1009B
:100E90008F7E8093E1008091E4018E7E806180935B
:100EA000E4019F918F910F900FBE0F901F901895A6
:100EB00080FFF7CF8091E2008E7E80618093E20018
:100EC0008091E1008E7E8093E1008091E4018E7E2E
:100ED0008160E5CF1F920F920FB60F921124CF922F
:100EE000DF92EF92FF920F931F932F933F934F93B5
:100EF0005F936F937F938F939F93AF93BF93EF9382
:100F0000FF93CF93DF93CDB7DEB76C97DEBFCDBF36
:100F10001092E9008091E80083FF25C068E0CE01CF
:100F200045960E94880282EF8093E8008D8987FFB2
:100F300039C09091E80090FFFCCF982F907609F08F
:100F400034C19E894F89588D2F89F88C911131C0F9
:100F5000803861F58091E2018093F1001092F100F8
:100F60008EEF8093E8006C960FB6F894DEBF0FBE4C
:100F7000CDBFDF91CF91FF91EF91BF91AF919F9145
:100F80008F917F916F915F914F913F912F911F9121
:100F90000F91FF90EF90DF90CF900F900FBE0F90CA
:100FA0001F9018959EEF9093E800C7CF1092F10024
:100FB000D5CF913059F48111D3CF4130510581F60D
:100FC0008091E2018D7F8093E201CACF933049F492
:100FD0008111C6CF4130510519F68091E20182603E
:100FE000F2CF953041F48091E80080FFFCCF20687B
:100FF0002093E300B5CF963009F0A9C00B8D1C8D6E
:1010000022E01092E9001092E0011092DF01F2124A
:101010002EC01092DE011092DD010E9457021F8245
:1010200099E09983FA8291E09E8390EA98879AEFFB
:1010300099872091DF013091E001275F3F4F3C838A
:101040002B838D831092E9001092E0011092DF0152
:101050001093DE010093DD0149E050E0BE016F5FB7
:101060007F4F80E00E9431020E94570279CF109397
:10107000DE010093DD010E943B01DC0112960D911F
:101080001C910115110509F451C1D801ED91FC9194
:101090000480F581E02DBE016B5E7F4FC80109958C
:1010A000009709F03EC1F80100851185EACFF3E011
:1010B000FF120EC08F89882309F440C0823061F48A
:1010C00040E860E18FE291E00E94FE01811148CF8B
:1010D00081E28093EB0047CF813029F440E86BE058
:1010E00083E291E0F1CF833099F70E943B01DC016C
:1010F0001296ED90FC908E010F5F1F4F6801E11476
:10110000F10479F0D701ED91FC910680F781E02D93
:10111000B801C7010995080F111DF701E084F1849A
:10112000EECFD8011C92F60101900020E9F731972B
:10113000BF016C197D0940E0C601C6CF6DE071E0CA
:10114000FB01449150E080E80E94310209CF9730C2
:1011500009F4BECF983021F481E08093F10000CFF4
:10116000993009F0FDCE837009F0B2CFEBE1F1E0E8
:1011700081E031E096E32191222371F08093E90030
:101180003093EB00DF0111972C912093EC009093AA
:10119000ED008F5F873079F78EE78093EA00109239
:1011A000EA008F898093F201DBCE8B8D9C8D1092AB
:1011B000E9001092E0011092DF019093DE0180932C
:1011C000DD01898D811192C08E899D89913A49F402
:1011D000813209F07DCF47E050E062E171E080E0CC
:1011E000B3CF913209F074CF833269F48F89988D2F
:1011F000B0E0A0E080930E0190930F01A093100146
:10120000B0931101ADCE803269F48091E80082FF85
:10121000FCCF67E082E191E00E9488028BEF80932F
:10122000E8009ECE823209F09BCE8F89809319010F
:10123000EEEFFFE7859194918B3F9C4D51F1E0E0FB
:10124000F8E08091120190911301A0911401B091E6
:101250001501803B9440A105B105F1F4809119017D
:1012600080FD1AC0EE3F8AE0F80789F587E797E727
:1012700091838083809160008093E10188E19BE00D
:101280000FB6F894A895809360000FBE909360000D
:1012900067CEEEEFFAE0D5CF80819181873797470F
:1012A00009F05ECEA895809160008861809360000F
:1012B0008091E10180936000EE3F2AE0F20789F01F
:1012C0008091FE0A9091FF0A9183808349CE8081AC
:1012D00091818737980751F29093FF0A8093FE0A15
:1012E000C5CF1092FF0A1092FE0A3ACE0E943B012F
:1012F000DC0112960D911C910115110509F4E8CE3F
:10130000D801ED91FC910190F081E02DBE016B5E62
:101310007F4FC8010995811123CEF8010085118501
:10132000EBCF181619060CF41BCED2CEF1E0FF124B
:10133000BECE61E171E004CF1F920F920FB60F9203
:1013400011242F933F934F935F936F937F938F93CA
:101350009F93AF93BF93EF93FF9383E492E00E9438
:101360001403FF91EF91BF91AF919F918F917F9166
:101370006F915F914F913F912F910F900FBE0F9002
:101380001F9018951F920F920FB60F9211242F9352
:101390008F939F93EF93FF93E0915302F091540248
:1013A0008081E0915902F0915A0282FD1BC0908128
:1013B00080915C028F5F8F7320915D02821741F0F4
:1013C000E0915C02F0E0ED5BFD4F958F80935C0255
:1013D000FF91EF919F918F912F910F900FBE0F90E2
:1013E0001F9018958081F4CF1F920F920FB60F9225
:1013F00011242F933F938F939F93AF93BF9380912B
:10140000D5019091D601A091D701B091D80130912A
:10141000D40123E0230F2D3758F50196A11DB11DEE
:101420002093D4018093D5019093D601A093D70146
:10143000B093D8018091D9019091DA01A091DB019C
:10144000B091DC010196A11DB11D8093D90190934B
:10145000DA01A093DB01B093DC01BF91AF919F91C2
:101460008F913F912F910F900FBE0F901F90189565
:1014700026E8230F0296A11DB11DD2CF1F920F9215
:101480000FB60F9211248F9383B18093D3018F9164
:101490000F900FBE0F901F9018951F920F920FB6CE
:1014A0000F9211242F933F934F935F936F937F93EA
:1014B0008F939F93AF93BF93EF93FF938091B90066
:1014C000887F803609F44AC0F0F5883209F4A5C057
:1014D00018F5803109F499C0B8F4882309F4F5C0EF
:1014E000883009F492C0FF91EF91BF91AF919F9125
:1014F0008F917F916F915F914F913F912F910F90BD
:101500000FBE0F901F901895883109F486C0803265
:1015100051F78093AC0114C0803409F49BC040F4AF
:101520008033B9F38833F9F68093AC0185ECAEC013
:10153000803509F483C0883509F494C0883499F65D
:101540000E948606D0CF883909F48AC038F58837DA
:1015500029F050F4883611F0803729F683E0809323
:10156000AD011092AB0155C0883809F479C08039BB
:1015700019F0803809F0B7CF8091AB01803208F0C4
:101580006FC0E091AB0181E08E0F8093AB01809141
:10159000BB00F0E0E557FE4F80833BC0803B39F055
:1015A000D0F4803A09F477C0883A09F09CCF84E0FF
:1015B0008093AD0110928A0110928901F0E0E0E081
:1015C00009958091890181110FC081E08093890183
:1015D0001092690109C0803C09F4A8CF883C09F445
:1015E000A5CF883B09F07FCFE0918A0181E08E0F83
:1015F00080938A01F0E0E759FE4F80818093BB0021
:1016000090918A018091890129C08091D2018093B3
:10161000BB0085EC8093BC0066CF9091D101809196
:10162000D001981758F5E091D10181E08E0F809399
:10163000D101F0E0E055FE4F8081E9CFE091D1018A
:1016400081E08E0F8093D1018091BB00F0E0E055E6
:10165000FE4F80839091D1018091D0019817C8F2FC
:1016600085E8D8CFE091D10181E08E0F8093D10140
:101670008091BB00F0E0E055FE4F80838091AF0188
:1016800081115ECF81E08093AE0184EA8093BC003B
:101690001092AD0128CF85EC8093BC001092AD0173
:1016A0008091AB01803230F4E091AB01F0E0E5577E
:1016B000FE4F10826091AB0170E08BE891E0F0E0AA
:1016C000E0E009951092AB010ECF1092AC0138CF3B
:1016D000CF93DF931092F6011092F50188EE93E01C
:1016E000A0E0B0E08093F7019093F801A093F90196
:1016F000B093FA0125E231E03093F4012093F30135
:101700002FEF3FEF309300022093FF01109246022B
:10171000109245028093470290934802A093490299
:10172000B0934A0227E331E030934402209343020E
:101730002DEC30E03093500220934F022CEC30E03F
:10174000309352022093510228EC30E0309354023F
:101750002093530229EC30E0309356022093550237
:101760002AEC30E030935802209357022EEC30E000
:1017700030935A022093590210925C0210925D023B
:1017800010925E0210925F021092F0021092EF022D
:101790008093F1029093F202A093F302B093F402CB
:1017A00029E431E03093EE022093ED0223E0209310
:1017B000F90222E02093FA0221E020930C03209307
:1017C0000D0322E030E030930B0320930A03809353
:1017D0000E0390930F03A0931003B0931103ECE852
:1017E000F1E08491EDE6F1E0E491E093FB0290E01A
:1017F000880F991FFC01E45AFE4F259134913093D4
:10180000FE022093FD02FC01E25BFE4F2591349124
:101810003093020320930103FC01E05CFE4F8591AD
:1018200094919093060380930503EBE8F1E0849193
:10183000ECE6F1E0E491E093FC0290E0880F991F60
:10184000FC01E45AFE4F259134913093000320931C
:10185000FF02FC01E25BFE4F2591349130930403BB
:1018600020930303FC01E05CFE4F859194919093DB
:10187000080380930703E2E7F1E02491E1E9F1E056
:1018800084918823C1F090E0880F991FFC01E25BEE
:10189000FE4FC591D491FC01E45AFE4FA591B4913D
:1018A0009FB7F8943881822F809583238883EC91A9
:1018B000E22BEC939FBF88E08093E9021092E8024C
:1018C0001092E1021092E0021092E3021092E20202
:1018D0001092E5021092E4021092E7021092E602E2
:1018E00088E48093EA028DEE92E09093EC0280937C
:1018F000EB02DF91CF910895789484B5826084BD26
:1019000084B5816084BD85B5826085BD85B5816003
:1019100085BD80916E00816080936E001092810081
:10192000809181008260809381008091810081603C
:1019300080938100809180008160809380008091FD
:1019400091008260809391008091910081608093EA
:101950009100809190008160809390008091C100FF
:1019600084608093C1008091C10082608093C10037
:101970008091C10081608093C1008091C30081602B
:101980008093C3008091C00082608093C0008091EA
:10199000C20081608093C20080917A00846080934D
:1019A0007A0080917A00826080937A0080917A0038
:1019B000816080937A0080917A00806880937A00B9
:1019C0001092F2011092E2011092E4018091D7008E
:1019D00081608093D70080EA8093D80089B58061C8
:1019E00089BD89B5826089BD09B400FEFDCF61E083
:1019F00070E080E090E00E9442048091D8008F7CEB
:101A000080618093D8008091E000807F8093E00027
:101A10008091E1008E7E8093E1008DE08093E20072
:101A2000559A209A60E177E280E090E00E944204BB
:101A3000E0915302F091540282E08083E0914F02E2
:101A4000F09150021082E0915102F09152028FEC1D
:101A5000808310925B02E0915702F091580286E079
:101A60008083E0915502F0915602808180618083ED
:101A7000E0915502F0915602808188608083E09168
:101A80005502F0915602808180688083E091550272
:101A9000F091560280818F7D808368EE73E080E054
:101AA00090E00E94420446E050E067E571E083E484
:101AB00092E00E94960242E050E06EE571E083E41D
:101AC00092E00E949602809164008160809364009D
:101AD00080916400826080936400809164008460DF
:101AE000809364008091640080688093640080919A
:101AF00064008860809364008091640080648093B7
:101B00006400809165008860809365008091650025
:101B10008160809365008091D8008F778093D80092
:101B20008091D8008E7F8093D8008091D8008F7EDE
:101B30008093D8008091D8008F7D8093D8008091C9
:101B4000D7008E7F8093D7008091DA008E7F8093BC
:101B5000DA008091E00081608093E00083B7817FAC
:101B6000846083BF83B7816083BF8895C0E0D0E085
:101B70002097F1F30E9400038823D1F30E94000014
:101B8000F7CF89E491E09093EE028093ED021092FA
:101B90000C03E0910103F091020390818091FB021C
:101BA00080958923808380910C03882349F0E091FC
:101BB000FD02F091FE0280819091FB02892B8083CF
:101BC000E0910303F091040390818091FC028095E1
:101BD0008923808380910C03882349F0E091FF02E0
:101BE000F091000380819091FC02892B80830895FD
:101BF000EE0FFF1F0590F491E02D099410E0C5ED64
:101C0000D0E004C0FE010E94F80D2196C63DD10728
:061C1000C9F7F894FFCFB4
:101C16009502950295029502950295029502FFFF9F
:101C2600FFFF00E100000000000000C1808100000D
:101C360000000000004F01740470016501B60174D4
:101C46000192010000000035039602C3028103F4ED
:101C560002D202E6020000000080052E058306205F
:101C66000575054A056205415424503D31000D0AAB
:021C760000006C
:00000001FF
